{
  "contractName": "L1L2Example",
  "abi": [
    {
      "inputs": [
        {
          "internalType": "contract IStarknetCore",
          "name": "starknetCore_",
          "type": "address"
        }
      ],
      "stateMutability": "nonpayable",
      "type": "constructor"
    },
    {
      "inputs": [
        {
          "internalType": "uint256",
          "name": "",
          "type": "uint256"
        }
      ],
      "name": "userBalances",
      "outputs": [
        {
          "internalType": "uint256",
          "name": "",
          "type": "uint256"
        }
      ],
      "stateMutability": "view",
      "type": "function"
    },
    {
      "inputs": [
        {
          "internalType": "uint256",
          "name": "l2ContractAddress",
          "type": "uint256"
        },
        {
          "internalType": "uint256",
          "name": "user",
          "type": "uint256"
        },
        {
          "internalType": "uint256",
          "name": "amount",
          "type": "uint256"
        }
      ],
      "name": "withdraw",
      "outputs": [],
      "stateMutability": "nonpayable",
      "type": "function"
    },
    {
      "inputs": [
        {
          "internalType": "uint256",
          "name": "l2ContractAddress",
          "type": "uint256"
        },
        {
          "internalType": "uint256",
          "name": "user",
          "type": "uint256"
        },
        {
          "internalType": "uint256",
          "name": "amount",
          "type": "uint256"
        }
      ],
      "name": "deposit",
      "outputs": [],
      "stateMutability": "nonpayable",
      "type": "function"
    }
  ],
  "bytecode": "0x608060405234801561001057600080fd5b5060405161067e38038061067e8339818101604052602081101561003357600080fd5b8101908080519060200190929190505050806000806101000a81548173ffffffffffffffffffffffffffffffffffffffff021916908373ffffffffffffffffffffffffffffffffffffffff160217905550506105ea806100946000396000f3fe608060405234801561001057600080fd5b50600436106100405760003560e01c8062aeef8a14610045578063051475dd14610087578063a41fe49f146100c9575b600080fd5b6100856004803603606081101561005b57600080fd5b8101908080359060200190929190803590602001909291908035906020019092919050505061010b565b005b6100b36004803603602081101561009d57600080fd5b81019080803590602001909291905050506103bb565b6040518082815260200191505060405180910390f35b610109600480360360608110156100df57600080fd5b810190808035906020019092919080359060200190929190803590602001909291905050506103d3565b005b680100000000000000008110610189576040517f08c379a000000000000000000000000000000000000000000000000000000000815260040180806020018281038252600f8152602001807f496e76616c696420616d6f756e742e000000000000000000000000000000000081525060200191505060405180910390fd5b60016000838152602001908152602001600020548111156101f5576040517f08c379a000000000000000000000000000000000000000000000000000000000815260040180806020018281038252602781526020018061058e6027913960400191505060405180910390fd5b8060016000848152602001908152602001600020600082825403925050819055506060600267ffffffffffffffff8111801561023057600080fd5b5060405190808252806020026020018201604052801561025f5781602001602082028036833780820191505090505b509050828160008151811061027057fe5b602002602001018181525050818160018151811061028a57fe5b60200260200101818152505060008054906101000a900473ffffffffffffffffffffffffffffffffffffffff1673ffffffffffffffffffffffffffffffffffffffff16633e3aa6c5857ec73f681176fc7b3f9693986fd7b14581e8d540519e27400e88b8713932be01846040518463ffffffff1660e01b81526004018084815260200183815260200180602001828103825283818151815260200191508051906020019060200280838360005b83811015610352578082015181840152602081019050610337565b50505050905001945050505050602060405180830381600087803b15801561037957600080fd5b505af115801561038d573d6000803e3d6000fd5b505050506040513d60208110156103a357600080fd5b81019080805190602001909291905050505050505050565b60016020528060005260406000206000915090505481565b6060600367ffffffffffffffff811180156103ed57600080fd5b5060405190808252806020026020018201604052801561041c5781602001602082028036833780820191505090505b50905060008160008151811061042e57fe5b602002602001018181525050828160018151811061044857fe5b602002602001018181525050818160028151811061046257fe5b60200260200101818152505060008054906101000a900473ffffffffffffffffffffffffffffffffffffffff1673ffffffffffffffffffffffffffffffffffffffff16632c9dd5c085836040518363ffffffff1660e01b81526004018083815260200180602001828103825283818151815260200191508051906020019060200280838360005b838110156105045780820151818401526020810190506104e9565b505050509050019350505050602060405180830381600087803b15801561052a57600080fd5b505af115801561053e573d6000803e3d6000fd5b505050506040513d602081101561055457600080fd5b8101908080519060200190929190505050508160016000858152602001908152602001600020600082825401925050819055505050505056fe546865207573657227732062616c616e6365206973206e6f74206c6172676520656e6f7567682ea2646970667358221220fc5a0c0870695e9a398fd08512a37f4bd4e6ebc172b8a261a16dce754fd9af7a64736f6c634300060c0033",
  "immutableReferences": {},
  "source": "pragma solidity ^0.6.12;\n\ninterface IStarknetCore {\n    /**\n      Sends a message to an L2 contract.\n\n      Returns the hash of the message.\n    */\n    function sendMessageToL2(\n        uint256 to_address,\n        uint256 selector,\n        uint256[] calldata payload\n    ) external returns (bytes32);\n\n    /**\n      Consumes a message that was sent from an L2 contract.\n\n      Returns the hash of the message.\n    */\n    function consumeMessageFromL2(uint256 fromAddress, uint256[] calldata payload)\n        external\n        returns (bytes32);\n}\n\n/**\n  Demo contract for L1 <-> L2 interaction between an L2 StarkNet contract and this L1 solidity\n  contract.\n*/\ncontract L1L2Example {\n    // The StarkNet core contract.\n    IStarknetCore starknetCore;\n\n    mapping(uint256 => uint256) public userBalances;\n\n    uint256 constant MESSAGE_WITHDRAW = 0;\n\n    // The selector of the \"deposit\" l1_handler.\n    uint256 constant DEPOSIT_SELECTOR =\n        352040181584456735608515580760888541466059565068553383579463728554843487745;\n\n    /**\n      Initializes the contract state.\n    */\n    constructor(IStarknetCore starknetCore_) public {\n        starknetCore = starknetCore_;\n    }\n\n    function withdraw(\n        uint256 l2ContractAddress,\n        uint256 user,\n        uint256 amount\n    ) external {\n        // Construct the withdrawal message's payload.\n        uint256[] memory payload = new uint256[](3);\n        payload[0] = MESSAGE_WITHDRAW;\n        payload[1] = user;\n        payload[2] = amount;\n\n        // Consume the message from the StarkNet core contract.\n        // This will revert the (Ethereum) transaction if the message does not exist.\n        starknetCore.consumeMessageFromL2(l2ContractAddress, payload);\n\n        // Update the L1 balance.\n        userBalances[user] += amount;\n    }\n\n    function deposit(\n        uint256 l2ContractAddress,\n        uint256 user,\n        uint256 amount\n    ) external {\n        require(amount < 2**64, \"Invalid amount.\");\n        require(amount <= userBalances[user], \"The user's balance is not large enough.\");\n\n        // Update the L1 balance.\n        userBalances[user] -= amount;\n\n        // Construct the deposit message's payload.\n        uint256[] memory payload = new uint256[](2);\n        payload[0] = user;\n        payload[1] = amount;\n\n        // Send the message to the StarkNet core contract.\n        starknetCore.sendMessageToL2(l2ContractAddress, DEPOSIT_SELECTOR, payload);\n    }\n}",
  "sourcePath": "/Users/henrilieutaud/Documents/Workshop/Cairo/StarkNet-graffiti/contracts/Migrations.sol",
  "compiler": {
    "name": "solc",
    "version": "0.6.12+commit.27d51765.Emscripten.clang"
  },
  "schemaVersion": "3.3.4",
  "updatedAt": "2021-11-29T09:46:02.007Z",
  "devdoc": {
    "kind": "dev",
    "methods": {},
    "version": 1
  },
  "userdoc": {
    "kind": "user",
    "methods": {
      "constructor": "Initializes the contract state."
    },
    "notice": "Demo contract for L1 <-> L2 interaction between an L2 StarkNet contract and this L1 solidity contract.",
    "version": 1
  }
}