{
  "contractName": "StarkNetGraffiti",
  "abi": [
    {
      "inputs": [],
      "stateMutability": "nonpayable",
      "type": "constructor"
    },
    {
      "anonymous": false,
      "inputs": [
        {
          "indexed": false,
          "internalType": "uint256",
          "name": "length",
          "type": "uint256"
        }
      ],
      "name": "logSomething",
      "type": "event"
    },
    {
      "anonymous": false,
      "inputs": [
        {
          "indexed": false,
          "internalType": "string",
          "name": "stringMessage",
          "type": "string"
        }
      ],
      "name": "messageReceivedFromStarkNet",
      "type": "event"
    },
    {
      "anonymous": false,
      "inputs": [
        {
          "indexed": false,
          "internalType": "string",
          "name": "stringMessage",
          "type": "string"
        }
      ],
      "name": "messageSentToStarkNet",
      "type": "event"
    },
    {
      "inputs": [],
      "name": "GRAFF_SELECTOR",
      "outputs": [
        {
          "internalType": "uint256",
          "name": "",
          "type": "uint256"
        }
      ],
      "stateMutability": "view",
      "type": "function",
      "constant": true
    },
    {
      "inputs": [],
      "name": "l2MessengerContractAddress",
      "outputs": [
        {
          "internalType": "uint256",
          "name": "",
          "type": "uint256"
        }
      ],
      "stateMutability": "view",
      "type": "function",
      "constant": true
    },
    {
      "inputs": [],
      "name": "owner",
      "outputs": [
        {
          "internalType": "address",
          "name": "",
          "type": "address"
        }
      ],
      "stateMutability": "view",
      "type": "function",
      "constant": true
    },
    {
      "inputs": [],
      "name": "starknetCore",
      "outputs": [
        {
          "internalType": "contract IStarknetCore",
          "name": "",
          "type": "address"
        }
      ],
      "stateMutability": "view",
      "type": "function",
      "constant": true
    },
    {
      "inputs": [
        {
          "internalType": "string",
          "name": "messageToGraff",
          "type": "string"
        }
      ],
      "name": "graffFromStarknetOnMainnet",
      "outputs": [],
      "stateMutability": "nonpayable",
      "type": "function"
    },
    {
      "inputs": [
        {
          "internalType": "string",
          "name": "messageToGraff",
          "type": "string"
        }
      ],
      "name": "graffFromMainnetOnStarknet",
      "outputs": [],
      "stateMutability": "nonpayable",
      "type": "function"
    },
    {
      "inputs": [
        {
          "internalType": "string[]",
          "name": "messagesToGraff",
          "type": "string[]"
        }
      ],
      "name": "multiGraffs",
      "outputs": [],
      "stateMutability": "nonpayable",
      "type": "function"
    },
    {
      "inputs": [
        {
          "internalType": "contract IStarknetCore",
          "name": "starknetCore_",
          "type": "address"
        },
        {
          "internalType": "uint256",
          "name": "l2MessengerContractAddress_",
          "type": "uint256"
        },
        {
          "internalType": "uint256",
          "name": "GRAFF_SELECTOR_",
          "type": "uint256"
        }
      ],
      "name": "setL2Graffer",
      "outputs": [],
      "stateMutability": "nonpayable",
      "type": "function"
    },
    {
      "inputs": [
        {
          "internalType": "string",
          "name": "myString",
          "type": "string"
        }
      ],
      "name": "buildMessagingPayloadFromString",
      "outputs": [
        {
          "internalType": "uint256[]",
          "name": "",
          "type": "uint256[]"
        }
      ],
      "stateMutability": "pure",
      "type": "function",
      "constant": true
    }
  ],
  "bytecode": "0x608060405234801561001057600080fd5b5033600360006101000a81548173ffffffffffffffffffffffffffffffffffffffff021916908373ffffffffffffffffffffffffffffffffffffffff160217905550610bb5806100616000396000f3fe608060405234801561001057600080fd5b50600436106100935760003560e01c8063570d1bea11610066578063570d1bea1461010c5780636f4bb4c6146101285780638da5cb5b146101585780639c5fd86114610176578063bb510fa31461019457610093565b8063077c9e0014610098578063094adc29146100b45780632cf0379a146100d057806339e730ab146100ee575b600080fd5b6100b260048036038101906100ad9190610766565b6101b0565b005b6100ce60048036038101906100c991906106ad565b6102a2565b005b6100d86102db565b6040516100e5919061090c565b60405180910390f35b6100f66102e1565b60405161010391906108cf565b60405180910390f35b61012660048036038101906101219190610717565b610305565b005b610142600480360381019061013d9190610766565b6103b2565b60405161014f91906108ad565b60405180910390f35b610160610484565b60405161016d9190610892565b60405180910390f35b61017e6104aa565b60405161018b919061090c565b60405180910390f35b6101ae60048036038101906101a99190610766565b6104b0565b005b60008054906101000a900473ffffffffffffffffffffffffffffffffffffffff1673ffffffffffffffffffffffffffffffffffffffff16632c9dd5c06002546101f8846103b2565b6040518363ffffffff1660e01b8152600401610215929190610927565b602060405180830381600087803b15801561022f57600080fd5b505af1158015610243573d6000803e3d6000fd5b505050506040513d601f19601f8201168201806040525081019061026791906106ee565b507f78d4ad7577aa278ff6a046b74593739087ba7abd2934d1bc6a9b331a30e7fa108160405161029791906108ea565b60405180910390a150565b60005b81518110156102d7576102ca8282815181106102bd57fe5b60200260200101516101b0565b80806001019150506102a5565b5050565b60015481565b60008054906101000a900473ffffffffffffffffffffffffffffffffffffffff1681565b600360009054906101000a900473ffffffffffffffffffffffffffffffffffffffff1673ffffffffffffffffffffffffffffffffffffffff163373ffffffffffffffffffffffffffffffffffffffff161461035f57600080fd5b826000806101000a81548173ffffffffffffffffffffffffffffffffffffffff021916908373ffffffffffffffffffffffffffffffffffffffff1602179055508160028190555080600181905550505050565b6060808290506060815167ffffffffffffffff811180156103d257600080fd5b506040519080825280602002602001820160405280156104015781602001602082028036833780820191505090505b50905081518160008151811061041357fe5b60200260200101818152505060005b82518160ff16101561047957828160ff168151811061043d57fe5b602001015160f81c60f81b60f81c60ff16826001830160ff168151811061046057fe5b6020026020010181815250508080600101915050610422565b508092505050919050565b600360009054906101000a900473ffffffffffffffffffffffffffffffffffffffff1681565b60025481565b60008054906101000a900473ffffffffffffffffffffffffffffffffffffffff1673ffffffffffffffffffffffffffffffffffffffff16633e3aa6c56002546001546104fb856103b2565b6040518463ffffffff1660e01b815260040161051993929190610957565b602060405180830381600087803b15801561053357600080fd5b505af1158015610547573d6000803e3d6000fd5b505050506040513d601f19601f8201168201806040525081019061056b91906106ee565b507f138460d44924299fd2b6e5f8dc486b7483120c1c0a128518ef0fa9fca81497c08160405161059b91906108ea565b60405180910390a150565b600082601f8301126105b757600080fd5b81356105ca6105c5826109c2565b610995565b9150818183526020840193506020810190508360005b8381101561061057813586016105f68882610644565b8452602084019350602083019250506001810190506105e0565b5050505092915050565b60008151905061062981610b3a565b92915050565b60008135905061063e81610b51565b92915050565b600082601f83011261065557600080fd5b8135610668610663826109ea565b610995565b9150808252602083016020830185838301111561068457600080fd5b61068f838284610ae7565b50505092915050565b6000813590506106a781610b68565b92915050565b6000602082840312156106bf57600080fd5b600082013567ffffffffffffffff8111156106d957600080fd5b6106e5848285016105a6565b91505092915050565b60006020828403121561070057600080fd5b600061070e8482850161061a565b91505092915050565b60008060006060848603121561072c57600080fd5b600061073a8682870161062f565b935050602061074b86828701610698565b925050604061075c86828701610698565b9150509250925092565b60006020828403121561077857600080fd5b600082013567ffffffffffffffff81111561079257600080fd5b61079e84828501610644565b91505092915050565b60006107b38383610874565b60208301905092915050565b6107c881610a6b565b82525050565b60006107d982610a26565b6107e38185610a49565b93506107ee83610a16565b8060005b8381101561081f57815161080688826107a7565b975061081183610a3c565b9250506001810190506107f2565b5085935050505092915050565b61083581610ac3565b82525050565b600061084682610a31565b6108508185610a5a565b9350610860818560208601610af6565b61086981610b29565b840191505092915050565b61087d81610ab9565b82525050565b61088c81610ab9565b82525050565b60006020820190506108a760008301846107bf565b92915050565b600060208201905081810360008301526108c781846107ce565b905092915050565b60006020820190506108e4600083018461082c565b92915050565b60006020820190508181036000830152610904818461083b565b905092915050565b60006020820190506109216000830184610883565b92915050565b600060408201905061093c6000830185610883565b818103602083015261094e81846107ce565b90509392505050565b600060608201905061096c6000830186610883565b6109796020830185610883565b818103604083015261098b81846107ce565b9050949350505050565b6000604051905081810181811067ffffffffffffffff821117156109b857600080fd5b8060405250919050565b600067ffffffffffffffff8211156109d957600080fd5b602082029050602081019050919050565b600067ffffffffffffffff821115610a0157600080fd5b601f19601f8301169050602081019050919050565b6000819050602082019050919050565b600081519050919050565b600081519050919050565b6000602082019050919050565b600082825260208201905092915050565b600082825260208201905092915050565b6000610a7682610a99565b9050919050565b6000819050919050565b6000610a9282610a6b565b9050919050565b600073ffffffffffffffffffffffffffffffffffffffff82169050919050565b6000819050919050565b6000610ace82610ad5565b9050919050565b6000610ae082610a99565b9050919050565b82818337600083830152505050565b60005b83811015610b14578082015181840152602081019050610af9565b83811115610b23576000848401525b50505050565b6000601f19601f8301169050919050565b610b4381610a7d565b8114610b4e57600080fd5b50565b610b5a81610a87565b8114610b6557600080fd5b50565b610b7181610ab9565b8114610b7c57600080fd5b5056fea26469706673582212206d5030a64d6c9e671160c0a0dd61e7638f88847fd22972a23640eb5a49d5e1f664736f6c634300060c0033",
  "immutableReferences": {},
  "source": "pragma solidity ^0.6.12;\npragma experimental ABIEncoderV2;\nimport './IStarknetCore.sol';\n/**\n  Demo contract for L1 <-> L2 interaction between an L2 StarkNet contract and this L1 solidity\n  contract.\n*/\ncontract StarkNetGraffiti {\n    // The StarkNet core contract.\n    IStarknetCore public starknetCore;\n\n    // The selector of the \"graffOnStarkNetFromMainnet\" l1_handler.\n    uint256 public GRAFF_SELECTOR; \n    // The address of the L2 graff contract\n    uint256 public l2MessengerContractAddress;\n\n    // An owner who can modify the graff contract\n    address public owner;\n\n    event messageReceivedFromStarkNet(string stringMessage);\n    event messageSentToStarkNet(string stringMessage);\n    event logSomething(uint256 length);\n    constructor() public \n    {   \n      owner = msg.sender;\n    }\n\n    function graffFromStarknetOnMainnet(string memory messageToGraff) \n    public \n    {\n\n\n        // // Consume the message from the StarkNet core contract.\n        // // This will revert the (Ethereum) transaction if the message does not exist.\n        starknetCore.consumeMessageFromL2(l2MessengerContractAddress, buildMessagingPayloadFromString(messageToGraff));\n        emit messageReceivedFromStarkNet(messageToGraff);\n    }\n\n    function graffFromMainnetOnStarknet(string memory messageToGraff) \n    public \n    {\n        // Send the message to the StarkNet core contract.\n        starknetCore.sendMessageToL2(l2MessengerContractAddress, GRAFF_SELECTOR, buildMessagingPayloadFromString(messageToGraff));\n        emit messageSentToStarkNet(messageToGraff);\n    }\n\n    function multiGraffs(string[] memory messagesToGraff)\n    external\n    {\n        for (uint i = 0; i < messagesToGraff.length; i++)\n        {\n            graffFromStarknetOnMainnet(messagesToGraff[i]);\n        }\n    }\n\n    // Setup, permissions and utility\n\n    function setL2Graffer(IStarknetCore starknetCore_, uint256 l2MessengerContractAddress_, uint256 GRAFF_SELECTOR_)\n    public\n    onlyOwner\n    {\n        starknetCore = starknetCore_;   \n        l2MessengerContractAddress = l2MessengerContractAddress_;\n        GRAFF_SELECTOR = GRAFF_SELECTOR_;\n    }\n\n    function buildMessagingPayloadFromString(string memory myString)\n    public\n    pure\n    returns (uint256[] memory)\n    {\n        bytes memory messageAsBytes = bytes(myString);\n        // Construct the deposit message's payload.\n        uint256[] memory payload = new uint256[](messageAsBytes.length);\n        payload[0] = uint256(messageAsBytes.length);\n        for (uint8 i = 0; i < messageAsBytes.length; i++)\n        {\n            payload[i+1] = uint8(messageAsBytes[i]);\n        }\n        return payload;\n    }\n\n    modifier onlyOwner() \n    {\n\n        require(msg.sender == owner);\n        _;\n    }\n\n}",
  "sourcePath": "/Users/henrilieutaud/Documents/Workshop/Cairo/StarkNet-graffiti/contracts/StarkNetGraffiti.sol",
  "compiler": {
    "name": "solc",
    "version": "0.6.12+commit.27d51765.Emscripten.clang"
  },
  "schemaVersion": "3.3.4",
  "updatedAt": "2021-11-30T05:32:12.572Z",
  "networkType": "ethereum",
  "devdoc": {
    "kind": "dev",
    "methods": {},
    "version": 1
  },
  "userdoc": {
    "kind": "user",
    "methods": {},
    "notice": "Demo contract for L1 <-> L2 interaction between an L2 StarkNet contract and this L1 solidity contract.",
    "version": 1
  }
}