{
  "contractName": "StarkNetGraffiti",
  "abi": [
    {
      "inputs": [],
      "stateMutability": "nonpayable",
      "type": "constructor"
    },
    {
      "anonymous": false,
      "inputs": [
        {
          "indexed": false,
          "internalType": "string",
          "name": "stringMessage",
          "type": "string"
        }
      ],
      "name": "messageReceivedFromStarkNet",
      "type": "event"
    },
    {
      "anonymous": false,
      "inputs": [
        {
          "indexed": false,
          "internalType": "string",
          "name": "stringMessage",
          "type": "string"
        }
      ],
      "name": "messageSentToStarkNet",
      "type": "event"
    },
    {
      "inputs": [],
      "name": "GRAFF_SELECTOR",
      "outputs": [
        {
          "internalType": "uint256",
          "name": "",
          "type": "uint256"
        }
      ],
      "stateMutability": "view",
      "type": "function",
      "constant": true
    },
    {
      "inputs": [],
      "name": "l2MessengerContractAddress",
      "outputs": [
        {
          "internalType": "uint256",
          "name": "",
          "type": "uint256"
        }
      ],
      "stateMutability": "view",
      "type": "function",
      "constant": true
    },
    {
      "inputs": [],
      "name": "owner",
      "outputs": [
        {
          "internalType": "address",
          "name": "",
          "type": "address"
        }
      ],
      "stateMutability": "view",
      "type": "function",
      "constant": true
    },
    {
      "inputs": [],
      "name": "starknetCore",
      "outputs": [
        {
          "internalType": "contract IStarknetCore",
          "name": "",
          "type": "address"
        }
      ],
      "stateMutability": "view",
      "type": "function",
      "constant": true
    },
    {
      "inputs": [
        {
          "internalType": "bytes32",
          "name": "messageToGraff",
          "type": "bytes32"
        }
      ],
      "name": "graffFromStarknetOnMainnet",
      "outputs": [],
      "stateMutability": "nonpayable",
      "type": "function"
    },
    {
      "inputs": [
        {
          "internalType": "bytes32",
          "name": "messageToGraff",
          "type": "bytes32"
        }
      ],
      "name": "graffFromMainnetOnStarknet",
      "outputs": [],
      "stateMutability": "nonpayable",
      "type": "function"
    },
    {
      "inputs": [
        {
          "internalType": "bytes32[]",
          "name": "messageToGraff",
          "type": "bytes32[]"
        }
      ],
      "name": "multiGraffs",
      "outputs": [],
      "stateMutability": "nonpayable",
      "type": "function"
    },
    {
      "inputs": [
        {
          "internalType": "contract IStarknetCore",
          "name": "starknetCore_",
          "type": "address"
        },
        {
          "internalType": "uint256",
          "name": "l2MessengerContractAddress_",
          "type": "uint256"
        },
        {
          "internalType": "uint256",
          "name": "GRAFF_SELECTOR_",
          "type": "uint256"
        }
      ],
      "name": "setL2Graffer",
      "outputs": [],
      "stateMutability": "nonpayable",
      "type": "function"
    },
    {
      "inputs": [
        {
          "internalType": "bytes32",
          "name": "_bytes32",
          "type": "bytes32"
        }
      ],
      "name": "bytes32ToString",
      "outputs": [
        {
          "internalType": "string",
          "name": "",
          "type": "string"
        }
      ],
      "stateMutability": "pure",
      "type": "function",
      "constant": true
    }
  ],
  "bytecode": "0x608060405234801561001057600080fd5b5033600360006101000a81548173ffffffffffffffffffffffffffffffffffffffff021916908373ffffffffffffffffffffffffffffffffffffffff160217905550610a82806100616000396000f3fe608060405234801561001057600080fd5b50600436106100935760003560e01c806358e1132a1161006657806358e1132a146101705780638da5cb5b1461019e5780639201de55146101d25780639c5fd86114610279578063f43bd4871461029757610093565b8063156bea85146100985780632cf0379a146100c657806339e730ab146100e4578063570d1bea14610118575b600080fd5b6100c4600480360360208110156100ae57600080fd5b810190808035906020019092919050505061034f565b005b6100ce610594565b6040518082815260200191505060405180910390f35b6100ec61059a565b604051808273ffffffffffffffffffffffffffffffffffffffff16815260200191505060405180910390f35b61016e6004803603606081101561012e57600080fd5b81019080803573ffffffffffffffffffffffffffffffffffffffff16906020019092919080359060200190929190803590602001909291905050506105be565b005b61019c6004803603602081101561018657600080fd5b810190808035906020019092919050505061066b565b005b6101a6610876565b604051808273ffffffffffffffffffffffffffffffffffffffff16815260200191505060405180910390f35b6101fe600480360360208110156101e857600080fd5b810190808035906020019092919050505061089c565b6040518080602001828103825283818151815260200191508051906020019080838360005b8381101561023e578082015181840152602081019050610223565b50505050905090810190601f16801561026b5780820380516001836020036101000a031916815260200191505b509250505060405180910390f35b610281610a0d565b6040518082815260200191505060405180910390f35b61034d600480360360208110156102ad57600080fd5b81019080803590602001906401000000008111156102ca57600080fd5b8201836020820111156102dc57600080fd5b803590602001918460208302840111640100000000831117156102fe57600080fd5b919080806020026020016040519081016040528093929190818152602001838360200280828437600081840152601f19601f820116905080830192505050505050509192919290505050610a13565b005b6060600267ffffffffffffffff8111801561036957600080fd5b506040519080825280602002602001820160405280156103985781602001602082028036833780820191505090505b5090503373ffffffffffffffffffffffffffffffffffffffff16816000815181106103bf57fe5b6020026020010181815250508160001c816001815181106103dc57fe5b60200260200101818152505060008054906101000a900473ffffffffffffffffffffffffffffffffffffffff1673ffffffffffffffffffffffffffffffffffffffff16633e3aa6c5600254600154846040518463ffffffff1660e01b81526004018084815260200183815260200180602001828103825283818151815260200191508051906020019060200280838360005b8381101561048957808201518184015260208101905061046e565b50505050905001945050505050602060405180830381600087803b1580156104b057600080fd5b505af11580156104c4573d6000803e3d6000fd5b505050506040513d60208110156104da57600080fd5b8101908080519060200190929190505050507f138460d44924299fd2b6e5f8dc486b7483120c1c0a128518ef0fa9fca81497c06105168361089c565b6040518080602001828103825283818151815260200191508051906020019080838360005b8381101561055657808201518184015260208101905061053b565b50505050905090810190601f1680156105835780820380516001836020036101000a031916815260200191505b509250505060405180910390a15050565b60015481565b60008054906101000a900473ffffffffffffffffffffffffffffffffffffffff1681565b600360009054906101000a900473ffffffffffffffffffffffffffffffffffffffff1673ffffffffffffffffffffffffffffffffffffffff163373ffffffffffffffffffffffffffffffffffffffff161461061857600080fd5b826000806101000a81548173ffffffffffffffffffffffffffffffffffffffff021916908373ffffffffffffffffffffffffffffffffffffffff1602179055508160028190555080600181905550505050565b6060600167ffffffffffffffff8111801561068557600080fd5b506040519080825280602002602001820160405280156106b45781602001602082028036833780820191505090505b5090508160001c816000815181106106c857fe5b60200260200101818152505060008054906101000a900473ffffffffffffffffffffffffffffffffffffffff1673ffffffffffffffffffffffffffffffffffffffff16632c9dd5c0600254836040518363ffffffff1660e01b81526004018083815260200180602001828103825283818151815260200191508051906020019060200280838360005b8381101561076c578082015181840152602081019050610751565b505050509050019350505050602060405180830381600087803b15801561079257600080fd5b505af11580156107a6573d6000803e3d6000fd5b505050506040513d60208110156107bc57600080fd5b8101908080519060200190929190505050507f78d4ad7577aa278ff6a046b74593739087ba7abd2934d1bc6a9b331a30e7fa106107f88361089c565b6040518080602001828103825283818151815260200191508051906020019080838360005b8381101561083857808201518184015260208101905061081d565b50505050905090810190601f1680156108655780820380516001836020036101000a031916815260200191505b509250505060405180910390a15050565b600360009054906101000a900473ffffffffffffffffffffffffffffffffffffffff1681565b606060005b60208160ff161080156108ec5750600060f81b838260ff16602081106108c357fe5b1a60f81b7effffffffffffffffffffffffffffffffffffffffffffffffffffffffffffff191614155b156108fe5780806001019150506108a1565b60608160ff1667ffffffffffffffff8111801561091a57600080fd5b506040519080825280601f01601f19166020018201604052801561094d5781602001600182028036833780820191505090505b509050600091505b60208260ff161080156109a05750600060f81b848360ff166020811061097757fe5b1a60f81b7effffffffffffffffffffffffffffffffffffffffffffffffffffffffffffff191614155b15610a0357838260ff16602081106109b457fe5b1a60f81b818360ff16815181106109c757fe5b60200101907effffffffffffffffffffffffffffffffffffffffffffffffffffffffffffff1916908160001a9053508180600101925050610955565b8092505050919050565b60025481565b60005b8151811015610a4857610a3b828281518110610a2e57fe5b602002602001015161066b565b8080600101915050610a16565b505056fea2646970667358221220c0bebb22654cae49e51aef7fcd672b8b0f6a458e95519afcce0ada6555d3c3d064736f6c634300060c0033",
  "immutableReferences": {},
  "source": "pragma solidity ^0.6.12;\nimport './IStarknetCore.sol';\n\n/**\n  Demo contract for L1 <-> L2 interaction between an L2 StarkNet contract and this L1 solidity\n  contract.\n*/\ncontract StarkNetGraffiti {\n    // The StarkNet core contract.\n    IStarknetCore public starknetCore;\n\n    // The selector of the \"graffOnStarkNetFromMainnet\" l1_handler.\n    uint256 public GRAFF_SELECTOR; \n    // The address of the L2 graff contract\n    uint256 public l2MessengerContractAddress;\n\n    // An owner who can modify the graff contract\n    address public owner;\n\n\n    event messageReceivedFromStarkNet(string stringMessage);\n    event messageSentToStarkNet(string stringMessage);\n\n    constructor() public \n    {   \n      owner = msg.sender;\n    }\n\n    function graffFromStarknetOnMainnet(bytes32 messageToGraff) \n    public \n    {\n        // Construct the withdrawal message's payload.\n        uint256[] memory payload = new uint256[](1);\n        payload[0] = uint256(messageToGraff);\n\n        // Consume the message from the StarkNet core contract.\n        // This will revert the (Ethereum) transaction if the message does not exist.\n        starknetCore.consumeMessageFromL2(l2MessengerContractAddress, payload);\n        emit messageReceivedFromStarkNet(bytes32ToString(messageToGraff));\n    }\n\n    function graffFromMainnetOnStarknet(bytes32 messageToGraff) \n    public \n    {\n       \n        // Construct the deposit message's payload.\n        uint256[] memory payload = new uint256[](2);\n        payload[0] = uint256(msg.sender);\n        payload[1] = uint256(messageToGraff);\n\n        // Send the message to the StarkNet core contract.\n        starknetCore.sendMessageToL2(l2MessengerContractAddress, GRAFF_SELECTOR, payload);\n        emit messageSentToStarkNet(bytes32ToString(messageToGraff));\n    }\n\n    function multiGraffs(bytes32[] memory messageToGraff)\n    external\n    {\n        for (uint i = 0; i < messageToGraff.length; i++)\n        {\n            graffFromStarknetOnMainnet(messageToGraff[i]);\n        }\n    }\n\n    // Setup, permissions and utility\n\n    function setL2Graffer(IStarknetCore starknetCore_, uint256 l2MessengerContractAddress_, uint256 GRAFF_SELECTOR_)\n    public\n    onlyOwner\n    {\n        starknetCore = starknetCore_;   \n        l2MessengerContractAddress = l2MessengerContractAddress_;\n        GRAFF_SELECTOR = GRAFF_SELECTOR_;\n    }\n\n    modifier onlyOwner() \n    {\n\n        require(msg.sender == owner);\n        _;\n    }\n\n    function bytes32ToString(bytes32 _bytes32) \n    public \n    pure \n    returns (string memory) \n    {\n        uint8 i = 0;\n        while(i < 32 && _bytes32[i] != 0) {\n            i++;\n        }\n        bytes memory bytesArray = new bytes(i);\n        for (i = 0; i < 32 && _bytes32[i] != 0; i++) {\n            bytesArray[i] = _bytes32[i];\n        }\n        return string(bytesArray);\n    }\n\n}",
  "sourcePath": "/Users/henrilieutaud/Documents/Workshop/Cairo/StarkNet-graffiti/contracts/StarkNetGraffiti.sol",
  "compiler": {
    "name": "solc",
    "version": "0.6.12+commit.27d51765.Emscripten.clang"
  },
  "schemaVersion": "3.3.4",
  "updatedAt": "2021-11-30T03:45:04.294Z",
  "networkType": "ethereum",
  "devdoc": {
    "kind": "dev",
    "methods": {},
    "version": 1
  },
  "userdoc": {
    "kind": "user",
    "methods": {},
    "notice": "Demo contract for L1 <-> L2 interaction between an L2 StarkNet contract and this L1 solidity contract.",
    "version": 1
  }
}