{
  "contractName": "StarkNetGraffiti",
  "abi": [
    {
      "inputs": [],
      "stateMutability": "nonpayable",
      "type": "constructor"
    },
    {
      "anonymous": false,
      "inputs": [
        {
          "indexed": false,
          "internalType": "string",
          "name": "stringMessage",
          "type": "string"
        }
      ],
      "name": "messageReceivedFromStarkNet",
      "type": "event"
    },
    {
      "anonymous": false,
      "inputs": [
        {
          "indexed": false,
          "internalType": "string",
          "name": "stringMessage",
          "type": "string"
        }
      ],
      "name": "messageSentToStarkNet",
      "type": "event"
    },
    {
      "inputs": [],
      "name": "GRAFF_SELECTOR",
      "outputs": [
        {
          "internalType": "uint256",
          "name": "",
          "type": "uint256"
        }
      ],
      "stateMutability": "view",
      "type": "function",
      "constant": true
    },
    {
      "inputs": [],
      "name": "l2MessengerContractAddress",
      "outputs": [
        {
          "internalType": "uint256",
          "name": "",
          "type": "uint256"
        }
      ],
      "stateMutability": "view",
      "type": "function",
      "constant": true
    },
    {
      "inputs": [],
      "name": "owner",
      "outputs": [
        {
          "internalType": "address",
          "name": "",
          "type": "address"
        }
      ],
      "stateMutability": "view",
      "type": "function",
      "constant": true
    },
    {
      "inputs": [],
      "name": "starknetCore",
      "outputs": [
        {
          "internalType": "contract IStarknetCore",
          "name": "",
          "type": "address"
        }
      ],
      "stateMutability": "view",
      "type": "function",
      "constant": true
    },
    {
      "inputs": [
        {
          "internalType": "bytes32",
          "name": "messageToGraff",
          "type": "bytes32"
        }
      ],
      "name": "graffFromStarknetOnMainnet",
      "outputs": [],
      "stateMutability": "nonpayable",
      "type": "function"
    },
    {
      "inputs": [
        {
          "internalType": "bytes32",
          "name": "messageToGraff",
          "type": "bytes32"
        }
      ],
      "name": "graffFromMainnetOnStarknet",
      "outputs": [],
      "stateMutability": "nonpayable",
      "type": "function"
    },
    {
      "inputs": [
        {
          "internalType": "bytes32[]",
          "name": "messageToGraff",
          "type": "bytes32[]"
        }
      ],
      "name": "multiGraffs",
      "outputs": [],
      "stateMutability": "nonpayable",
      "type": "function"
    },
    {
      "inputs": [
        {
          "internalType": "contract IStarknetCore",
          "name": "starknetCore_",
          "type": "address"
        },
        {
          "internalType": "uint256",
          "name": "l2MessengerContractAddress_",
          "type": "uint256"
        },
        {
          "internalType": "uint256",
          "name": "GRAFF_SELECTOR_",
          "type": "uint256"
        }
      ],
      "name": "setL2Graffer",
      "outputs": [],
      "stateMutability": "nonpayable",
      "type": "function"
    },
    {
      "inputs": [
        {
          "internalType": "bytes32",
          "name": "_bytes32",
          "type": "bytes32"
        }
      ],
      "name": "customizedBytes32ToString",
      "outputs": [
        {
          "internalType": "string",
          "name": "",
          "type": "string"
        }
      ],
      "stateMutability": "pure",
      "type": "function",
      "constant": true
    }
  ],
  "bytecode": "0x608060405234801561001057600080fd5b5033600360006101000a81548173ffffffffffffffffffffffffffffffffffffffff021916908373ffffffffffffffffffffffffffffffffffffffff160217905550610a1b806100616000396000f3fe608060405234801561001057600080fd5b50600436106100935760003560e01c806358e1132a1161006657806358e1132a146101705780638da5cb5b1461019e5780639c5fd861146101d2578063a33bb644146101f0578063f43bd4871461029757610093565b8063156bea85146100985780632cf0379a146100c657806339e730ab146100e4578063570d1bea14610118575b600080fd5b6100c4600480360360208110156100ae57600080fd5b810190808035906020019092919050505061034f565b005b6100ce610564565b6040518082815260200191505060405180910390f35b6100ec61056a565b604051808273ffffffffffffffffffffffffffffffffffffffff16815260200191505060405180910390f35b61016e6004803603606081101561012e57600080fd5b81019080803573ffffffffffffffffffffffffffffffffffffffff169060200190929190803590602001909291908035906020019092919050505061058e565b005b61019c6004803603602081101561018657600080fd5b810190808035906020019092919050505061063b565b005b6101a6610846565b604051808273ffffffffffffffffffffffffffffffffffffffff16815260200191505060405180910390f35b6101da61086c565b6040518082815260200191505060405180910390f35b61021c6004803603602081101561020657600080fd5b8101908080359060200190929190505050610872565b6040518080602001828103825283818151815260200191508051906020019080838360005b8381101561025c578082015181840152602081019050610241565b50505050905090810190601f1680156102895780820380516001836020036101000a031916815260200191505b509250505060405180910390f35b61034d600480360360208110156102ad57600080fd5b81019080803590602001906401000000008111156102ca57600080fd5b8201836020820111156102dc57600080fd5b803590602001918460208302840111640100000000831117156102fe57600080fd5b919080806020026020016040519081016040528093929190818152602001838360200280828437600081840152601f19601f8201169050808301925050505050505091929192905050506109ac565b005b6060600167ffffffffffffffff8111801561036957600080fd5b506040519080825280602002602001820160405280156103985781602001602082028036833780820191505090505b5090508160001c816000815181106103ac57fe5b60200260200101818152505060008054906101000a900473ffffffffffffffffffffffffffffffffffffffff1673ffffffffffffffffffffffffffffffffffffffff16633e3aa6c5600254600154846040518463ffffffff1660e01b81526004018084815260200183815260200180602001828103825283818151815260200191508051906020019060200280838360005b8381101561045957808201518184015260208101905061043e565b50505050905001945050505050602060405180830381600087803b15801561048057600080fd5b505af1158015610494573d6000803e3d6000fd5b505050506040513d60208110156104aa57600080fd5b8101908080519060200190929190505050507f138460d44924299fd2b6e5f8dc486b7483120c1c0a128518ef0fa9fca81497c06104e683610872565b6040518080602001828103825283818151815260200191508051906020019080838360005b8381101561052657808201518184015260208101905061050b565b50505050905090810190601f1680156105535780820380516001836020036101000a031916815260200191505b509250505060405180910390a15050565b60015481565b60008054906101000a900473ffffffffffffffffffffffffffffffffffffffff1681565b600360009054906101000a900473ffffffffffffffffffffffffffffffffffffffff1673ffffffffffffffffffffffffffffffffffffffff163373ffffffffffffffffffffffffffffffffffffffff16146105e857600080fd5b826000806101000a81548173ffffffffffffffffffffffffffffffffffffffff021916908373ffffffffffffffffffffffffffffffffffffffff1602179055508160028190555080600181905550505050565b6060600167ffffffffffffffff8111801561065557600080fd5b506040519080825280602002602001820160405280156106845781602001602082028036833780820191505090505b5090508160001c8160008151811061069857fe5b60200260200101818152505060008054906101000a900473ffffffffffffffffffffffffffffffffffffffff1673ffffffffffffffffffffffffffffffffffffffff16632c9dd5c0600254836040518363ffffffff1660e01b81526004018083815260200180602001828103825283818151815260200191508051906020019060200280838360005b8381101561073c578082015181840152602081019050610721565b505050509050019350505050602060405180830381600087803b15801561076257600080fd5b505af1158015610776573d6000803e3d6000fd5b505050506040513d602081101561078c57600080fd5b8101908080519060200190929190505050507f78d4ad7577aa278ff6a046b74593739087ba7abd2934d1bc6a9b331a30e7fa106107c883610872565b6040518080602001828103825283818151815260200191508051906020019080838360005b838110156108085780820151818401526020810190506107ed565b50505050905090810190601f1680156108355780820380516001836020036101000a031916815260200191505b509250505060405180910390a15050565b600360009054906101000a900473ffffffffffffffffffffffffffffffffffffffff1681565b60025481565b606060005b60208160ff161080156108c25750600060f81b838260ff166020811061089957fe5b1a60f81b7effffffffffffffffffffffffffffffffffffffffffffffffffffffffffffff191614155b156108d4578080600101915050610877565b60008160ff16905060608160200367ffffffffffffffff811180156108f857600080fd5b506040519080825280601f01601f19166020018201604052801561092b5781602001600182028036833780820191505090505b509050600092505b816020038360ff1610156109a15784828460ff16016020811061095257fe5b1a60f81b818460ff168151811061096557fe5b60200101907effffffffffffffffffffffffffffffffffffffffffffffffffffffffffffff1916908160001a9053508280600101935050610933565b809350505050919050565b60005b81518110156109e1576109d48282815181106109c757fe5b602002602001015161063b565b80806001019150506109af565b505056fea2646970667358221220888f797d6db73057f0f632297b1d297ab47227242d98c5cfc640a8f00981edce64736f6c634300060c0033",
  "immutableReferences": {},
  "source": "pragma solidity ^0.6.12;\nimport './IStarknetCore.sol';\n\n/**\n  Demo contract for L1 <-> L2 interaction between an L2 StarkNet contract and this L1 solidity\n  contract.\n*/\ncontract StarkNetGraffiti {\n    // The StarkNet core contract.\n    IStarknetCore public starknetCore;\n\n    // The selector of the \"graffOnStarkNetFromMainnet\" l1_handler.\n    uint256 public GRAFF_SELECTOR; \n    // The address of the L2 graff contract\n    uint256 public l2MessengerContractAddress;\n\n    // An owner who can modify the graff contract\n    address public owner;\n\n    event messageReceivedFromStarkNet(string stringMessage);\n    event messageSentToStarkNet(string stringMessage);\n\n    constructor() public \n    {   \n      owner = msg.sender;\n    }\n\n\n    function graffFromStarknetOnMainnet(bytes32 messageToGraff) \n    public \n    {\n        // Construct the withdrawal message's payload.\n        uint256[] memory payload = new uint256[](1);\n        payload[0] = uint256(messageToGraff);\n\n        // Consume the message from the StarkNet core contract.\n        // This will revert the (Ethereum) transaction if the message does not exist.\n        starknetCore.consumeMessageFromL2(l2MessengerContractAddress, payload);\n        emit messageReceivedFromStarkNet(customizedBytes32ToString(messageToGraff));\n    }\n\n    function graffFromMainnetOnStarknet(bytes32 messageToGraff) \n    public \n    {\n       \n        // Construct the deposit message's payload.\n        uint256[] memory payload = new uint256[](1);\n        payload[0] = uint256(messageToGraff);\n\n        // Send the message to the StarkNet core contract.\n        starknetCore.sendMessageToL2(l2MessengerContractAddress, GRAFF_SELECTOR, payload);\n        emit messageSentToStarkNet(customizedBytes32ToString(messageToGraff));\n    }\n\n    function multiGraffs(bytes32[] memory messageToGraff)\n    external\n    {\n        for (uint i = 0; i < messageToGraff.length; i++)\n        {\n            graffFromStarknetOnMainnet(messageToGraff[i]);\n        }\n    }\n\n    // Setup, permissions and utility\n\n    function setL2Graffer(IStarknetCore starknetCore_, uint256 l2MessengerContractAddress_, uint256 GRAFF_SELECTOR_)\n    public\n    onlyOwner\n    {\n        starknetCore = starknetCore_;   \n        l2MessengerContractAddress = l2MessengerContractAddress_;\n        GRAFF_SELECTOR = GRAFF_SELECTOR_;\n    }\n\n    modifier onlyOwner() \n    {\n\n        require(msg.sender == owner);\n        _;\n    }\n\n    function customizedBytes32ToString(bytes32 _bytes32) \n    public \n    pure \n    returns (string memory) \n    {\n        uint8 i = 0;\n        while(i < 32 && _bytes32[i] != 0) {\n            i++;\n        }\n        uint offset = i;\n        bytes memory bytesArray = new bytes(32-offset);\n        for (i = 0; i < 32-offset; i++) {\n            bytesArray[i] = _bytes32[i+offset];\n        }\n        return string(bytesArray);\n    }\n    \n\n\n\n}",
  "sourcePath": "/Users/henrilieutaud/Documents/Workshop/Cairo/StarkNet-graffiti/contracts/StarkNetGraffiti.sol",
  "compiler": {
    "name": "solc",
    "version": "0.6.12+commit.27d51765.Emscripten.clang"
  },
  "schemaVersion": "3.3.4",
  "updatedAt": "2021-12-04T10:18:50.058Z",
  "networkType": "ethereum",
  "devdoc": {
    "kind": "dev",
    "methods": {},
    "version": 1
  },
  "userdoc": {
    "kind": "user",
    "methods": {},
    "notice": "Demo contract for L1 <-> L2 interaction between an L2 StarkNet contract and this L1 solidity contract.",
    "version": 1
  }
}