{
  "contractName": "StarkNetGraffiti",
  "abi": [
    {
      "inputs": [],
      "stateMutability": "nonpayable",
      "type": "constructor"
    },
    {
      "anonymous": false,
      "inputs": [
        {
          "indexed": false,
          "internalType": "string",
          "name": "stringMessage",
          "type": "string"
        }
      ],
      "name": "messageReceivedFromStarkNet",
      "type": "event"
    },
    {
      "anonymous": false,
      "inputs": [
        {
          "indexed": false,
          "internalType": "string",
          "name": "stringMessage",
          "type": "string"
        }
      ],
      "name": "messageSentToStarkNet",
      "type": "event"
    },
    {
      "inputs": [],
      "name": "owner",
      "outputs": [
        {
          "internalType": "address",
          "name": "",
          "type": "address"
        }
      ],
      "stateMutability": "view",
      "type": "function"
    },
    {
      "inputs": [
        {
          "internalType": "bytes32",
          "name": "messageToGraff",
          "type": "bytes32"
        }
      ],
      "name": "graffFromStarknetOnMainnet",
      "outputs": [],
      "stateMutability": "nonpayable",
      "type": "function"
    },
    {
      "inputs": [
        {
          "internalType": "bytes32",
          "name": "messageToGraff",
          "type": "bytes32"
        }
      ],
      "name": "graffFromMainnetOnStarknet",
      "outputs": [],
      "stateMutability": "nonpayable",
      "type": "function"
    },
    {
      "inputs": [
        {
          "internalType": "bytes32[]",
          "name": "messageToGraff",
          "type": "bytes32[]"
        }
      ],
      "name": "multiGraffs",
      "outputs": [],
      "stateMutability": "nonpayable",
      "type": "function"
    },
    {
      "inputs": [
        {
          "internalType": "contract IStarknetCore",
          "name": "starknetCore_",
          "type": "address"
        },
        {
          "internalType": "uint256",
          "name": "l2MessengerContractAddress_",
          "type": "uint256"
        },
        {
          "internalType": "uint256",
          "name": "GRAFF_SELECTOR_",
          "type": "uint256"
        }
      ],
      "name": "setL2Graffer",
      "outputs": [],
      "stateMutability": "nonpayable",
      "type": "function"
    },
    {
      "inputs": [
        {
          "internalType": "bytes32",
          "name": "_bytes32",
          "type": "bytes32"
        }
      ],
      "name": "bytes32ToString",
      "outputs": [
        {
          "internalType": "string",
          "name": "",
          "type": "string"
        }
      ],
      "stateMutability": "pure",
      "type": "function"
    }
  ],
  "bytecode": "0x608060405234801561001057600080fd5b5033600360006101000a81548173ffffffffffffffffffffffffffffffffffffffff021916908373ffffffffffffffffffffffffffffffffffffffff1602179055506109b1806100616000396000f3fe608060405234801561001057600080fd5b50600436106100625760003560e01c8063156bea8514610067578063570d1bea1461009557806358e1132a146100ed5780638da5cb5b1461011b5780639201de551461014f578063f43bd487146101f6575b600080fd5b6100936004803603602081101561007d57600080fd5b81019080803590602001909291905050506102ae565b005b6100eb600480360360608110156100ab57600080fd5b81019080803573ffffffffffffffffffffffffffffffffffffffff16906020019092919080359060200190929190803590602001909291905050506104f3565b005b6101196004803603602081101561010357600080fd5b81019080803590602001909291905050506105a0565b005b6101236107ab565b604051808273ffffffffffffffffffffffffffffffffffffffff16815260200191505060405180910390f35b61017b6004803603602081101561016557600080fd5b81019080803590602001909291905050506107d1565b6040518080602001828103825283818151815260200191508051906020019080838360005b838110156101bb5780820151818401526020810190506101a0565b50505050905090810190601f1680156101e85780820380516001836020036101000a031916815260200191505b509250505060405180910390f35b6102ac6004803603602081101561020c57600080fd5b810190808035906020019064010000000081111561022957600080fd5b82018360208201111561023b57600080fd5b8035906020019184602083028401116401000000008311171561025d57600080fd5b919080806020026020016040519081016040528093929190818152602001838360200280828437600081840152601f19601f820116905080830192505050505050509192919290505050610942565b005b6060600267ffffffffffffffff811180156102c857600080fd5b506040519080825280602002602001820160405280156102f75781602001602082028036833780820191505090505b5090503373ffffffffffffffffffffffffffffffffffffffff168160008151811061031e57fe5b6020026020010181815250508160001c8160018151811061033b57fe5b60200260200101818152505060008054906101000a900473ffffffffffffffffffffffffffffffffffffffff1673ffffffffffffffffffffffffffffffffffffffff16633e3aa6c5600254600154846040518463ffffffff1660e01b81526004018084815260200183815260200180602001828103825283818151815260200191508051906020019060200280838360005b838110156103e85780820151818401526020810190506103cd565b50505050905001945050505050602060405180830381600087803b15801561040f57600080fd5b505af1158015610423573d6000803e3d6000fd5b505050506040513d602081101561043957600080fd5b8101908080519060200190929190505050507f138460d44924299fd2b6e5f8dc486b7483120c1c0a128518ef0fa9fca81497c0610475836107d1565b6040518080602001828103825283818151815260200191508051906020019080838360005b838110156104b557808201518184015260208101905061049a565b50505050905090810190601f1680156104e25780820380516001836020036101000a031916815260200191505b509250505060405180910390a15050565b600360009054906101000a900473ffffffffffffffffffffffffffffffffffffffff1673ffffffffffffffffffffffffffffffffffffffff163373ffffffffffffffffffffffffffffffffffffffff161461054d57600080fd5b826000806101000a81548173ffffffffffffffffffffffffffffffffffffffff021916908373ffffffffffffffffffffffffffffffffffffffff1602179055508160028190555080600181905550505050565b6060600167ffffffffffffffff811180156105ba57600080fd5b506040519080825280602002602001820160405280156105e95781602001602082028036833780820191505090505b5090508160001c816000815181106105fd57fe5b60200260200101818152505060008054906101000a900473ffffffffffffffffffffffffffffffffffffffff1673ffffffffffffffffffffffffffffffffffffffff16632c9dd5c0600254836040518363ffffffff1660e01b81526004018083815260200180602001828103825283818151815260200191508051906020019060200280838360005b838110156106a1578082015181840152602081019050610686565b505050509050019350505050602060405180830381600087803b1580156106c757600080fd5b505af11580156106db573d6000803e3d6000fd5b505050506040513d60208110156106f157600080fd5b8101908080519060200190929190505050507f78d4ad7577aa278ff6a046b74593739087ba7abd2934d1bc6a9b331a30e7fa1061072d836107d1565b6040518080602001828103825283818151815260200191508051906020019080838360005b8381101561076d578082015181840152602081019050610752565b50505050905090810190601f16801561079a5780820380516001836020036101000a031916815260200191505b509250505060405180910390a15050565b600360009054906101000a900473ffffffffffffffffffffffffffffffffffffffff1681565b606060005b60208160ff161080156108215750600060f81b838260ff16602081106107f857fe5b1a60f81b7effffffffffffffffffffffffffffffffffffffffffffffffffffffffffffff191614155b156108335780806001019150506107d6565b60608160ff1667ffffffffffffffff8111801561084f57600080fd5b506040519080825280601f01601f1916602001820160405280156108825781602001600182028036833780820191505090505b509050600091505b60208260ff161080156108d55750600060f81b848360ff16602081106108ac57fe5b1a60f81b7effffffffffffffffffffffffffffffffffffffffffffffffffffffffffffff191614155b1561093857838260ff16602081106108e957fe5b1a60f81b818360ff16815181106108fc57fe5b60200101907effffffffffffffffffffffffffffffffffffffffffffffffffffffffffffff1916908160001a905350818060010192505061088a565b8092505050919050565b60005b81518110156109775761096a82828151811061095d57fe5b60200260200101516105a0565b8080600101915050610945565b505056fea264697066735822122007165aa349a067e011df2a143c7a689bbaa5c05b57fd5adcd5daadeb44659f9564736f6c634300060c0033",
  "immutableReferences": {},
  "source": "pragma solidity ^0.6.12;\nimport './IStarknetCore.sol';\n\n/**\n  Demo contract for L1 <-> L2 interaction between an L2 StarkNet contract and this L1 solidity\n  contract.\n*/\ncontract StarkNetGraffiti {\n    // The StarkNet core contract.\n    IStarknetCore starknetCore;\n\n    // The selector of the \"graffOnStarkNetFromMainnet\" l1_handler.\n    uint256 GRAFF_SELECTOR; \n    // The address of the L2 graff contract\n    uint256 l2MessengerContractAddress;\n\n    // An owner who can modify the graff contract\n    address public owner;\n\n\n    event messageReceivedFromStarkNet(string stringMessage);\n    event messageSentToStarkNet(string stringMessage);\n\n    constructor() public \n    {   \n      owner = msg.sender;\n    }\n\n    function graffFromStarknetOnMainnet(bytes32 messageToGraff) \n    public \n    {\n        // Construct the withdrawal message's payload.\n        uint256[] memory payload = new uint256[](1);\n        payload[0] = uint256(messageToGraff);\n\n        // Consume the message from the StarkNet core contract.\n        // This will revert the (Ethereum) transaction if the message does not exist.\n        starknetCore.consumeMessageFromL2(l2MessengerContractAddress, payload);\n        emit messageReceivedFromStarkNet(bytes32ToString(messageToGraff));\n    }\n\n    function graffFromMainnetOnStarknet(bytes32 messageToGraff) \n    public \n    {\n       \n        // Construct the deposit message's payload.\n        uint256[] memory payload = new uint256[](2);\n        payload[0] = uint256(msg.sender);\n        payload[1] = uint256(messageToGraff);\n\n        // Send the message to the StarkNet core contract.\n        starknetCore.sendMessageToL2(l2MessengerContractAddress, GRAFF_SELECTOR, payload);\n        emit messageSentToStarkNet(bytes32ToString(messageToGraff));\n    }\n\n    function multiGraffs(bytes32[] memory messageToGraff)\n    external\n    {\n        for (uint i = 0; i < messageToGraff.length; i++)\n        {\n            graffFromStarknetOnMainnet(messageToGraff[i]);\n        }\n    }\n\n    // Setup, permissions and utility\n\n    function setL2Graffer(IStarknetCore starknetCore_, uint256 l2MessengerContractAddress_, uint256 GRAFF_SELECTOR_)\n    public\n    onlyOwner\n    {\n        starknetCore = starknetCore_;   \n        l2MessengerContractAddress = l2MessengerContractAddress_;\n        GRAFF_SELECTOR = GRAFF_SELECTOR_;\n    }\n\n    modifier onlyOwner() \n    {\n\n        require(msg.sender == owner);\n        _;\n    }\n\n    function bytes32ToString(bytes32 _bytes32) \n    public \n    pure \n    returns (string memory) \n    {\n        uint8 i = 0;\n        while(i < 32 && _bytes32[i] != 0) {\n            i++;\n        }\n        bytes memory bytesArray = new bytes(i);\n        for (i = 0; i < 32 && _bytes32[i] != 0; i++) {\n            bytesArray[i] = _bytes32[i];\n        }\n        return string(bytesArray);\n    }\n\n}",
  "sourcePath": "/Users/henrilieutaud/Documents/Workshop/Cairo/StarkNet-graffiti/contracts/StarkNetGraffiti.sol",
  "compiler": {
    "name": "solc",
    "version": "0.6.12+commit.27d51765.Emscripten.clang"
  },
  "schemaVersion": "3.3.4",
  "updatedAt": "2021-11-29T15:59:02.579Z",
  "devdoc": {
    "kind": "dev",
    "methods": {},
    "version": 1
  },
  "userdoc": {
    "kind": "user",
    "methods": {},
    "notice": "Demo contract for L1 <-> L2 interaction between an L2 StarkNet contract and this L1 solidity contract.",
    "version": 1
  }
}