{
  "contractName": "StarkNetGraffiti",
  "abi": [
    {
      "inputs": [],
      "stateMutability": "nonpayable",
      "type": "constructor"
    },
    {
      "anonymous": false,
      "inputs": [
        {
          "indexed": false,
          "internalType": "uint256",
          "name": "length",
          "type": "uint256"
        }
      ],
      "name": "logSomething",
      "type": "event"
    },
    {
      "anonymous": false,
      "inputs": [
        {
          "indexed": false,
          "internalType": "string",
          "name": "stringMessage",
          "type": "string"
        }
      ],
      "name": "messageReceivedFromStarkNet",
      "type": "event"
    },
    {
      "anonymous": false,
      "inputs": [
        {
          "indexed": false,
          "internalType": "string",
          "name": "stringMessage",
          "type": "string"
        }
      ],
      "name": "messageSentToStarkNet",
      "type": "event"
    },
    {
      "inputs": [],
      "name": "GRAFF_SELECTOR",
      "outputs": [
        {
          "internalType": "uint256",
          "name": "",
          "type": "uint256"
        }
      ],
      "stateMutability": "view",
      "type": "function",
      "constant": true
    },
    {
      "inputs": [],
      "name": "l2MessengerContractAddress",
      "outputs": [
        {
          "internalType": "uint256",
          "name": "",
          "type": "uint256"
        }
      ],
      "stateMutability": "view",
      "type": "function",
      "constant": true
    },
    {
      "inputs": [],
      "name": "owner",
      "outputs": [
        {
          "internalType": "address",
          "name": "",
          "type": "address"
        }
      ],
      "stateMutability": "view",
      "type": "function",
      "constant": true
    },
    {
      "inputs": [],
      "name": "something",
      "outputs": [
        {
          "internalType": "uint256",
          "name": "",
          "type": "uint256"
        }
      ],
      "stateMutability": "view",
      "type": "function",
      "constant": true
    },
    {
      "inputs": [],
      "name": "starknetCore",
      "outputs": [
        {
          "internalType": "contract IStarknetCore",
          "name": "",
          "type": "address"
        }
      ],
      "stateMutability": "view",
      "type": "function",
      "constant": true
    },
    {
      "inputs": [
        {
          "internalType": "bytes32",
          "name": "messageToGraff",
          "type": "bytes32"
        }
      ],
      "name": "testSomething",
      "outputs": [],
      "stateMutability": "nonpayable",
      "type": "function"
    },
    {
      "inputs": [
        {
          "internalType": "bytes32",
          "name": "messageToGraff",
          "type": "bytes32"
        }
      ],
      "name": "graffFromStarknetOnMainnet",
      "outputs": [],
      "stateMutability": "nonpayable",
      "type": "function"
    },
    {
      "inputs": [
        {
          "internalType": "bytes32",
          "name": "messageToGraff",
          "type": "bytes32"
        }
      ],
      "name": "graffFromMainnetOnStarknet",
      "outputs": [],
      "stateMutability": "nonpayable",
      "type": "function"
    },
    {
      "inputs": [
        {
          "internalType": "bytes32[]",
          "name": "messageToGraff",
          "type": "bytes32[]"
        }
      ],
      "name": "multiGraffs",
      "outputs": [],
      "stateMutability": "nonpayable",
      "type": "function"
    },
    {
      "inputs": [
        {
          "internalType": "contract IStarknetCore",
          "name": "starknetCore_",
          "type": "address"
        },
        {
          "internalType": "uint256",
          "name": "l2MessengerContractAddress_",
          "type": "uint256"
        },
        {
          "internalType": "uint256",
          "name": "GRAFF_SELECTOR_",
          "type": "uint256"
        }
      ],
      "name": "setL2Graffer",
      "outputs": [],
      "stateMutability": "nonpayable",
      "type": "function"
    },
    {
      "inputs": [
        {
          "internalType": "bytes32",
          "name": "_bytes32",
          "type": "bytes32"
        }
      ],
      "name": "bytes32ToString",
      "outputs": [
        {
          "internalType": "string",
          "name": "",
          "type": "string"
        }
      ],
      "stateMutability": "pure",
      "type": "function",
      "constant": true
    }
  ],
  "bytecode": "0x608060405234801561001057600080fd5b5033600360006101000a81548173ffffffffffffffffffffffffffffffffffffffff021916908373ffffffffffffffffffffffffffffffffffffffff160217905550610b13806100616000396000f3fe608060405234801561001057600080fd5b50600436106100a95760003560e01c80637097a86e116100715780637097a86e146101b45780638da5cb5b146101e25780639201de55146102165780639c5fd861146102bd578063a7a0d537146102db578063f43bd487146102f9576100a9565b8063156bea85146100ae5780632cf0379a146100dc57806339e730ab146100fa578063570d1bea1461012e57806358e1132a14610186575b600080fd5b6100da600480360360208110156100c457600080fd5b81019080803590602001909291905050506103b1565b005b6100e46105f6565b6040518082815260200191505060405180910390f35b6101026105fc565b604051808273ffffffffffffffffffffffffffffffffffffffff16815260200191505060405180910390f35b6101846004803603606081101561014457600080fd5b81019080803573ffffffffffffffffffffffffffffffffffffffff1690602001909291908035906020019092919080359060200190929190505050610620565b005b6101b26004803603602081101561019c57600080fd5b81019080803590602001909291905050506106cd565b005b6101e0600480360360208110156101ca57600080fd5b81019080803590602001909291905050506108d8565b005b6101ea610901565b604051808273ffffffffffffffffffffffffffffffffffffffff16815260200191505060405180910390f35b6102426004803603602081101561022c57600080fd5b8101908080359060200190929190505050610927565b6040518080602001828103825283818151815260200191508051906020019080838360005b83811015610282578082015181840152602081019050610267565b50505050905090810190601f1680156102af5780820380516001836020036101000a031916815260200191505b509250505060405180910390f35b6102c5610a98565b6040518082815260200191505060405180910390f35b6102e3610a9e565b6040518082815260200191505060405180910390f35b6103af6004803603602081101561030f57600080fd5b810190808035906020019064010000000081111561032c57600080fd5b82018360208201111561033e57600080fd5b8035906020019184602083028401116401000000008311171561036057600080fd5b919080806020026020016040519081016040528093929190818152602001838360200280828437600081840152601f19601f820116905080830192505050505050509192919290505050610aa4565b005b6060600267ffffffffffffffff811180156103cb57600080fd5b506040519080825280602002602001820160405280156103fa5781602001602082028036833780820191505090505b5090503373ffffffffffffffffffffffffffffffffffffffff168160008151811061042157fe5b6020026020010181815250508160001c8160018151811061043e57fe5b60200260200101818152505060008054906101000a900473ffffffffffffffffffffffffffffffffffffffff1673ffffffffffffffffffffffffffffffffffffffff16633e3aa6c5600254600154846040518463ffffffff1660e01b81526004018084815260200183815260200180602001828103825283818151815260200191508051906020019060200280838360005b838110156104eb5780820151818401526020810190506104d0565b50505050905001945050505050602060405180830381600087803b15801561051257600080fd5b505af1158015610526573d6000803e3d6000fd5b505050506040513d602081101561053c57600080fd5b8101908080519060200190929190505050507f138460d44924299fd2b6e5f8dc486b7483120c1c0a128518ef0fa9fca81497c061057883610927565b6040518080602001828103825283818151815260200191508051906020019080838360005b838110156105b857808201518184015260208101905061059d565b50505050905090810190601f1680156105e55780820380516001836020036101000a031916815260200191505b509250505060405180910390a15050565b60015481565b60008054906101000a900473ffffffffffffffffffffffffffffffffffffffff1681565b600360009054906101000a900473ffffffffffffffffffffffffffffffffffffffff1673ffffffffffffffffffffffffffffffffffffffff163373ffffffffffffffffffffffffffffffffffffffff161461067a57600080fd5b826000806101000a81548173ffffffffffffffffffffffffffffffffffffffff021916908373ffffffffffffffffffffffffffffffffffffffff1602179055508160028190555080600181905550505050565b6060600167ffffffffffffffff811180156106e757600080fd5b506040519080825280602002602001820160405280156107165781602001602082028036833780820191505090505b5090508160001c8160008151811061072a57fe5b60200260200101818152505060008054906101000a900473ffffffffffffffffffffffffffffffffffffffff1673ffffffffffffffffffffffffffffffffffffffff16632c9dd5c0600254836040518363ffffffff1660e01b81526004018083815260200180602001828103825283818151815260200191508051906020019060200280838360005b838110156107ce5780820151818401526020810190506107b3565b505050509050019350505050602060405180830381600087803b1580156107f457600080fd5b505af1158015610808573d6000803e3d6000fd5b505050506040513d602081101561081e57600080fd5b8101908080519060200190929190505050507f78d4ad7577aa278ff6a046b74593739087ba7abd2934d1bc6a9b331a30e7fa1061085a83610927565b6040518080602001828103825283818151815260200191508051906020019080838360005b8381101561089a57808201518184015260208101905061087f565b50505050905090810190601f1680156108c75780820380516001836020036101000a031916815260200191505b509250505060405180910390a15050565b60007048656c6c6f20746573746e6574203b2d2960001b90508082146108fd57600080fd5b5050565b600360009054906101000a900473ffffffffffffffffffffffffffffffffffffffff1681565b606060005b60208160ff161080156109775750600060f81b838260ff166020811061094e57fe5b1a60f81b7effffffffffffffffffffffffffffffffffffffffffffffffffffffffffffff191614155b1561098957808060010191505061092c565b60608160ff1667ffffffffffffffff811180156109a557600080fd5b506040519080825280601f01601f1916602001820160405280156109d85781602001600182028036833780820191505090505b509050600091505b60208260ff16108015610a2b5750600060f81b848360ff1660208110610a0257fe5b1a60f81b7effffffffffffffffffffffffffffffffffffffffffffffffffffffffffffff191614155b15610a8e57838260ff1660208110610a3f57fe5b1a60f81b818360ff1681518110610a5257fe5b60200101907effffffffffffffffffffffffffffffffffffffffffffffffffffffffffffff1916908160001a90535081806001019250506109e0565b8092505050919050565b60025481565b60045481565b60005b8151811015610ad957610acc828281518110610abf57fe5b60200260200101516106cd565b8080600101915050610aa7565b505056fea264697066735822122015d8c574061e2864938a25bdc057d389f254ed02f10ac511071c4d8402f8cfad64736f6c634300060c0033",
  "immutableReferences": {},
  "source": "pragma solidity ^0.6.12;\nimport './IStarknetCore.sol';\n\n/**\n  Demo contract for L1 <-> L2 interaction between an L2 StarkNet contract and this L1 solidity\n  contract.\n*/\ncontract StarkNetGraffiti {\n    // The StarkNet core contract.\n    IStarknetCore public starknetCore;\n\n    // The selector of the \"graffOnStarkNetFromMainnet\" l1_handler.\n    uint256 public GRAFF_SELECTOR; \n    // The address of the L2 graff contract\n    uint256 public l2MessengerContractAddress;\n\n    // An owner who can modify the graff contract\n    address public owner;\n    uint256 public something;\n\n    event messageReceivedFromStarkNet(string stringMessage);\n    event messageSentToStarkNet(string stringMessage);\n    event logSomething(uint256 length);\n    constructor() public \n    {   \n      owner = msg.sender;\n    }\n\n    function testSomething(bytes32 messageToGraff)\n    public\n    {\n        bytes32 whatIWant = 0x00000000000000000000000000000048656c6c6f20746573746e6574203b2d29;\n        require(messageToGraff == whatIWant);\n    }\n\n    function graffFromStarknetOnMainnet(bytes32 messageToGraff) \n    public \n    {\n        // Construct the withdrawal message's payload.\n        uint256[] memory payload = new uint256[](1);\n        payload[0] = uint256(messageToGraff);\n\n        // Consume the message from the StarkNet core contract.\n        // This will revert the (Ethereum) transaction if the message does not exist.\n        starknetCore.consumeMessageFromL2(l2MessengerContractAddress, payload);\n        emit messageReceivedFromStarkNet(bytes32ToString(messageToGraff));\n    }\n\n    function graffFromMainnetOnStarknet(bytes32 messageToGraff) \n    public \n    {\n       \n        // Construct the deposit message's payload.\n        uint256[] memory payload = new uint256[](2);\n        payload[0] = uint256(msg.sender);\n        payload[1] = uint256(messageToGraff);\n\n        // Send the message to the StarkNet core contract.\n        starknetCore.sendMessageToL2(l2MessengerContractAddress, GRAFF_SELECTOR, payload);\n        emit messageSentToStarkNet(bytes32ToString(messageToGraff));\n    }\n\n    function multiGraffs(bytes32[] memory messageToGraff)\n    external\n    {\n        for (uint i = 0; i < messageToGraff.length; i++)\n        {\n            graffFromStarknetOnMainnet(messageToGraff[i]);\n        }\n    }\n\n    // Setup, permissions and utility\n\n    function setL2Graffer(IStarknetCore starknetCore_, uint256 l2MessengerContractAddress_, uint256 GRAFF_SELECTOR_)\n    public\n    onlyOwner\n    {\n        starknetCore = starknetCore_;   \n        l2MessengerContractAddress = l2MessengerContractAddress_;\n        GRAFF_SELECTOR = GRAFF_SELECTOR_;\n    }\n\n    modifier onlyOwner() \n    {\n\n        require(msg.sender == owner);\n        _;\n    }\n\n    function bytes32ToString(bytes32 _bytes32) \n    public \n    pure \n    returns (string memory) \n    {\n        uint8 i = 0;\n        while(i < 32 && _bytes32[i] != 0) {\n            i++;\n        }\n        bytes memory bytesArray = new bytes(i);\n        for (i = 0; i < 32 && _bytes32[i] != 0; i++) {\n            bytesArray[i] = _bytes32[i];\n        }\n        return string(bytesArray);\n    }\n\n}",
  "sourcePath": "/Users/henrilieutaud/Documents/Workshop/Cairo/StarkNet-graffiti/contracts/StarkNetGraffiti.sol",
  "compiler": {
    "name": "solc",
    "version": "0.6.12+commit.27d51765.Emscripten.clang"
  },
  "schemaVersion": "3.3.4",
  "updatedAt": "2021-11-30T09:24:25.352Z",
  "networkType": "ethereum",
  "devdoc": {
    "kind": "dev",
    "methods": {},
    "version": 1
  },
  "userdoc": {
    "kind": "user",
    "methods": {},
    "notice": "Demo contract for L1 <-> L2 interaction between an L2 StarkNet contract and this L1 solidity contract.",
    "version": 1
  }
}