{
  "contractName": "StarkNetGraffiti",
  "abi": [
    {
      "inputs": [
        {
          "internalType": "contract IStarknetCore",
          "name": "starknetCore_",
          "type": "address"
        }
      ],
      "stateMutability": "nonpayable",
      "type": "constructor"
    },
    {
      "anonymous": false,
      "inputs": [
        {
          "indexed": false,
          "internalType": "address",
          "name": "sender",
          "type": "address"
        },
        {
          "indexed": false,
          "internalType": "string",
          "name": "stringMessage",
          "type": "string"
        }
      ],
      "name": "messageReceivedFromStarkNet",
      "type": "event"
    },
    {
      "anonymous": false,
      "inputs": [
        {
          "indexed": false,
          "internalType": "address",
          "name": "sender",
          "type": "address"
        },
        {
          "indexed": false,
          "internalType": "string",
          "name": "stringMessage",
          "type": "string"
        }
      ],
      "name": "messageSentToStarkNet",
      "type": "event"
    },
    {
      "inputs": [],
      "name": "owner",
      "outputs": [
        {
          "internalType": "address",
          "name": "",
          "type": "address"
        }
      ],
      "stateMutability": "view",
      "type": "function"
    },
    {
      "inputs": [
        {
          "internalType": "address",
          "name": "sender",
          "type": "address"
        },
        {
          "internalType": "bytes32",
          "name": "messageToGraff",
          "type": "bytes32"
        }
      ],
      "name": "graffFromStarknetOnMainnet",
      "outputs": [],
      "stateMutability": "nonpayable",
      "type": "function"
    },
    {
      "inputs": [
        {
          "internalType": "bytes32",
          "name": "messageToGraff",
          "type": "bytes32"
        }
      ],
      "name": "graffOnStarkNetFromMainnet",
      "outputs": [],
      "stateMutability": "nonpayable",
      "type": "function"
    },
    {
      "inputs": [
        {
          "internalType": "address[]",
          "name": "senders",
          "type": "address[]"
        },
        {
          "internalType": "bytes32[]",
          "name": "messageToGraff",
          "type": "bytes32[]"
        }
      ],
      "name": "multiGraffs",
      "outputs": [],
      "stateMutability": "nonpayable",
      "type": "function"
    },
    {
      "inputs": [
        {
          "internalType": "uint256",
          "name": "l2MessengerContractAddress_",
          "type": "uint256"
        },
        {
          "internalType": "uint256",
          "name": "GRAFF_SELECTOR_",
          "type": "uint256"
        }
      ],
      "name": "setL2Graffer",
      "outputs": [],
      "stateMutability": "nonpayable",
      "type": "function"
    },
    {
      "inputs": [
        {
          "internalType": "bytes32",
          "name": "_bytes32",
          "type": "bytes32"
        }
      ],
      "name": "bytes32ToString",
      "outputs": [
        {
          "internalType": "string",
          "name": "",
          "type": "string"
        }
      ],
      "stateMutability": "pure",
      "type": "function"
    }
  ],
  "bytecode": "0x608060405234801561001057600080fd5b50604051610b5b380380610b5b8339818101604052602081101561003357600080fd5b8101908080519060200190929190505050806000806101000a81548173ffffffffffffffffffffffffffffffffffffffff021916908373ffffffffffffffffffffffffffffffffffffffff16021790555033600360006101000a81548173ffffffffffffffffffffffffffffffffffffffff021916908373ffffffffffffffffffffffffffffffffffffffff16021790555050610a86806100d56000396000f3fe608060405234801561001057600080fd5b50600436106100625760003560e01c806318f1e1bd146100675780636490101a1461009f5780637fc41424146100ed5780638143eefb146102395780638da5cb5b146102675780639201de551461029b575b600080fd5b61009d6004803603604081101561007d57600080fd5b810190808035906020019092919080359060200190929190505050610342565b005b6100eb600480360360408110156100b557600080fd5b81019080803573ffffffffffffffffffffffffffffffffffffffff169060200190929190803590602001909291905050506103ae565b005b6102376004803603604081101561010357600080fd5b810190808035906020019064010000000081111561012057600080fd5b82018360208201111561013257600080fd5b8035906020019184602083028401116401000000008311171561015457600080fd5b919080806020026020016040519081016040528093929190818152602001838360200280828437600081840152601f19601f820116905080830192505050505050509192919290803590602001906401000000008111156101b457600080fd5b8201836020820111156101c657600080fd5b803590602001918460208302840111640100000000831117156101e857600080fd5b919080806020026020016040519081016040528093929190818152602001838360200280828437600081840152601f19601f820116905080830192505050505050509192919290505050610608565b005b6102656004803603602081101561024f57600080fd5b8101908080359060200190929190505050610656565b005b61026f6108b9565b604051808273ffffffffffffffffffffffffffffffffffffffff16815260200191505060405180910390f35b6102c7600480360360208110156102b157600080fd5b81019080803590602001909291905050506108df565b6040518080602001828103825283818151815260200191508051906020019080838360005b838110156103075780820151818401526020810190506102ec565b50505050905090810190601f1680156103345780820380516001836020036101000a031916815260200191505b509250505060405180910390f35b600360009054906101000a900473ffffffffffffffffffffffffffffffffffffffff1673ffffffffffffffffffffffffffffffffffffffff163373ffffffffffffffffffffffffffffffffffffffff161461039c57600080fd5b81600281905550806001819055505050565b6060600267ffffffffffffffff811180156103c857600080fd5b506040519080825280602002602001820160405280156103f75781602001602082028036833780820191505090505b5090508273ffffffffffffffffffffffffffffffffffffffff168160008151811061041e57fe5b6020026020010181815250508160001c8160018151811061043b57fe5b60200260200101818152505060008054906101000a900473ffffffffffffffffffffffffffffffffffffffff1673ffffffffffffffffffffffffffffffffffffffff16632c9dd5c0600254836040518363ffffffff1660e01b81526004018083815260200180602001828103825283818151815260200191508051906020019060200280838360005b838110156104df5780820151818401526020810190506104c4565b505050509050019350505050602060405180830381600087803b15801561050557600080fd5b505af1158015610519573d6000803e3d6000fd5b505050506040513d602081101561052f57600080fd5b8101908080519060200190929190505050507f812f44cd6837612e56e74346c0be047f17b8aba057d52872aee6ccc17e6009d08361056c846108df565b604051808373ffffffffffffffffffffffffffffffffffffffff16815260200180602001828103825283818151815260200191508051906020019080838360005b838110156105c85780820151818401526020810190506105ad565b50505050905090810190601f1680156105f55780820380516001836020036101000a031916815260200191505b50935050505060405180910390a1505050565b60005b82518110156106515761064483828151811061062357fe5b602002602001015183838151811061063757fe5b60200260200101516103ae565b808060010191505061060b565b505050565b6060600267ffffffffffffffff8111801561067057600080fd5b5060405190808252806020026020018201604052801561069f5781602001602082028036833780820191505090505b5090503373ffffffffffffffffffffffffffffffffffffffff16816000815181106106c657fe5b6020026020010181815250508160001c816001815181106106e357fe5b60200260200101818152505060008054906101000a900473ffffffffffffffffffffffffffffffffffffffff1673ffffffffffffffffffffffffffffffffffffffff16633e3aa6c5600254600154846040518463ffffffff1660e01b81526004018084815260200183815260200180602001828103825283818151815260200191508051906020019060200280838360005b83811015610790578082015181840152602081019050610775565b50505050905001945050505050602060405180830381600087803b1580156107b757600080fd5b505af11580156107cb573d6000803e3d6000fd5b505050506040513d60208110156107e157600080fd5b8101908080519060200190929190505050507fb6c0b185021aa91ea44f05d0250b1e23b36e900e51b87a3bd648caad2b3289733361081e846108df565b604051808373ffffffffffffffffffffffffffffffffffffffff16815260200180602001828103825283818151815260200191508051906020019080838360005b8381101561087a57808201518184015260208101905061085f565b50505050905090810190601f1680156108a75780820380516001836020036101000a031916815260200191505b50935050505060405180910390a15050565b600360009054906101000a900473ffffffffffffffffffffffffffffffffffffffff1681565b606060005b60208160ff1610801561092f5750600060f81b838260ff166020811061090657fe5b1a60f81b7effffffffffffffffffffffffffffffffffffffffffffffffffffffffffffff191614155b156109415780806001019150506108e4565b60608160ff1667ffffffffffffffff8111801561095d57600080fd5b506040519080825280601f01601f1916602001820160405280156109905781602001600182028036833780820191505090505b509050600091505b60208260ff161080156109e35750600060f81b848360ff16602081106109ba57fe5b1a60f81b7effffffffffffffffffffffffffffffffffffffffffffffffffffffffffffff191614155b15610a4657838260ff16602081106109f757fe5b1a60f81b818360ff1681518110610a0a57fe5b60200101907effffffffffffffffffffffffffffffffffffffffffffffffffffffffffffff1916908160001a9053508180600101925050610998565b809250505091905056fea2646970667358221220f3c75251495bd9ca351d3c8a173bf1666e90bc8c1eb5a9803a5befc60cc46cab64736f6c634300060c0033",
  "immutableReferences": {},
  "source": "pragma solidity ^0.6.12;\nimport './IStarknetCore.sol';\n\n/**\n  Demo contract for L1 <-> L2 interaction between an L2 StarkNet contract and this L1 solidity\n  contract.\n*/\ncontract StarkNetGraffiti {\n    // The StarkNet core contract.\n    IStarknetCore starknetCore;\n\n    // The selector of the \"graffOnStarkNetFromMainnet\" l1_handler.\n    uint256 GRAFF_SELECTOR; \n    // The address of the L2 graff contract\n    uint256 l2MessengerContractAddress;\n\n    // An owner who can modify the graff contract\n    address public owner;\n\n\n    event messageReceivedFromStarkNet(address sender, string stringMessage);\n    event messageSentToStarkNet(address sender, string stringMessage);\n\n    constructor(IStarknetCore starknetCore_) public \n    {   \n      starknetCore = starknetCore_;\n      owner = msg.sender;\n    }\n\n    function graffFromStarknetOnMainnet(address sender, bytes32 messageToGraff) \n    public \n    {\n        // Construct the withdrawal message's payload.\n        uint256[] memory payload = new uint256[](2);\n        payload[0] = uint256(sender);\n        payload[1] = uint256(messageToGraff);\n\n        // Consume the message from the StarkNet core contract.\n        // This will revert the (Ethereum) transaction if the message does not exist.\n        starknetCore.consumeMessageFromL2(l2MessengerContractAddress, payload);\n        emit messageReceivedFromStarkNet(sender, bytes32ToString(messageToGraff));\n    }\n\n    function graffOnStarkNetFromMainnet(bytes32 messageToGraff) \n    public \n    {\n       \n        // Construct the deposit message's payload.\n        uint256[] memory payload = new uint256[](2);\n        payload[0] = uint256(msg.sender);\n        payload[1] = uint256(messageToGraff);\n\n        // Send the message to the StarkNet core contract.\n        starknetCore.sendMessageToL2(l2MessengerContractAddress, GRAFF_SELECTOR, payload);\n        emit messageSentToStarkNet(msg.sender, bytes32ToString(messageToGraff));\n    }\n\n    function multiGraffs(address[] memory senders, bytes32[] memory messageToGraff)\n    external\n    {\n        for (uint i = 0; i < senders.length; i++)\n        {\n            graffFromStarknetOnMainnet(senders[i], messageToGraff[i]);\n        }\n    }\n\n    // Setup, permissions and utility\n\n    function setL2Graffer(uint256 l2MessengerContractAddress_, uint256 GRAFF_SELECTOR_)\n    public\n    onlyOwner\n    {\n        l2MessengerContractAddress = l2MessengerContractAddress_;\n        GRAFF_SELECTOR = GRAFF_SELECTOR_;\n    }\n\n    modifier onlyOwner() \n    {\n\n        require(msg.sender == owner);\n        _;\n    }\n\n    function bytes32ToString(bytes32 _bytes32) \n    public \n    pure \n    returns (string memory) \n    {\n        uint8 i = 0;\n        while(i < 32 && _bytes32[i] != 0) {\n            i++;\n        }\n        bytes memory bytesArray = new bytes(i);\n        for (i = 0; i < 32 && _bytes32[i] != 0; i++) {\n            bytesArray[i] = _bytes32[i];\n        }\n        return string(bytesArray);\n    }\n\n}",
  "sourcePath": "/Users/henrilieutaud/Documents/Workshop/Cairo/StarkNet-graffiti/contracts/StarkNetGraffiti.sol",
  "compiler": {
    "name": "solc",
    "version": "0.6.12+commit.27d51765.Emscripten.clang"
  },
  "schemaVersion": "3.3.4",
  "updatedAt": "2021-11-29T13:36:34.534Z",
  "devdoc": {
    "kind": "dev",
    "methods": {},
    "version": 1
  },
  "userdoc": {
    "kind": "user",
    "methods": {},
    "notice": "Demo contract for L1 <-> L2 interaction between an L2 StarkNet contract and this L1 solidity contract.",
    "version": 1
  }
}